:0C0000000C94DA020C9400000C94000038
:10000C000C94510B0C9400000C9400000C94000008
:10001C000C9400000C9400000C9400000C94000054
:10002C000C9400000C9400000C9400000C94000044
:10003C000C9400000C9400000C9400000C94000034
:10004C000C9400000C9400000507206000000000D8
:10005C000000005F00000007000700147F147F14ED
:10006C00242A7F2A12231308646236495522500031
:10007C0005030000001C2241000041221C00082A3C
:10008C001C2A0808083E0808005030000008080820
:10009C000808003030000020100804023E51494589
:1000AC003E00427F400042615149462141454B315F
:1000BC001814127F1027454545393C4A49493001EF
:1000CC00710905033649494936064949291E003646
:1000DC003600000056360000000814224114141497
:1000EC0014144122140800020151090632497941C5
:1000FC003E7E1111117E7F494949363E41414122D4
:10010C007F4141221C7F494949417F090901013E38
:10011C00414151327F0808087F00417F4100204057
:10012C00413F017F081422417F404040407F020440
:10013C00027F7F0408107F3E4141413E7F0909093F
:10014C00063E4151215E7F091929464649494931EC
:10015C0001017F01013F4040403F1F2040201F7F95
:10016C002018207F6314081463030478040361517E
:10017C0049454300007F4141020408102041417F62
:10018C00000004020102044040404040000102040F
:10019C000020545454787F48444438384444442014
:1001AC00384444487F3854545418087E09010208D6
:1001BC001454543C7F0804047800447D40002040D3
:1001CC00443D00007F10284400417F40007C04180F
:1001DC0004787C0804047838444444387C1414149F
:1001EC0008081414187C7C0804040848545454203F
:1001FC00043F4440203C4040207C1C2040201C3CC0
:10020C004030403C44281028440C5050503C44642E
:10021C00544C44000836410000007F000000413679
:10022C00080002010204027F4141417F00010307E3
:10023C000F1F3F7FFF0000000000010000000000C6
:10024C0010203040500080004000140014000000CA
:10025C000000000000000000000001000000000091
:10026C000000000000000000000000000000D7EBC0
:10027C00DBBBEDDDBDEEDEBE706172616D6574657C
:10028C00722025643A2000256400202020202020A4
:10029C002020004D6F6465203120456E74657220FE
:1002AC004C696E6520706172616D65746572732046
:1002BC00312D34202878312C2079312C2078322C97
:1002CC002079322920666F72206974656D2025644F
:1002DC003A00696E76616C69642120202020004C04
:1002EC00696E652073617665642120202020004DA5
:1002FC006F6465203120456E74657220526563749D
:10030C00616E676C6520706172616D657465727386
:10031C0020312D34202878312C2079312C20783242
:10032C002C2079322920666F72206974656D202526
:10033C00643A0052656374616E676C652073617614
:10034C0065642120202020004D6F646520312045FC
:10035C006E74657220436972636C652070617261A2
:10036C006D657465727320312D332028782C2079BB
:10037C002C20722920666F72206974656D202564AB
:10038C003A00436972636C65207361766564212061
:10039C00202020004D6F6465203120456E746572FD
:1003AC0020436972636C6520706172616D65746560
:1003BC00727320312D362028782C20792C2078311E
:1003CC002C2079312C2078322C2079322920666F20
:1003DC0072206974656D2025643A00536563746FEF
:1003EC00722073617665642120202020006D6F647B
:1003FC00653A20312073656C656374206974656D92
:10040C000025642D206974656D202564006D6F6472
:10041C00653A20312073656C63657420747970655E
:10042C0000312D204C696E6500322D2052656374AD
:10043C00616E676C6500332D20436972636C6500D7
:10044C00342D20536563746F72006D6F64652032B8
:10045C003A20456E746572206465736B207061720E
:10046C00616D657465727320312D322028782C20D3
:10047C0079293A00696E76616C696420202020200D
:10048C0020202020202020006465736B20787920A8
:10049C007365742120202020006E656564732074C0
:1004AC006F207265636F766572696E6720737973FE
:1004BC0074656D21006D6F646520323A20456E7451
:1004CC006572206D6F746F7220706172616D6574EE
:1004DC006572202872706D293A006D6F746F72739B
:1004EC0020737065656420736574212020202000C2
:1004FC006D6F64653A20330A456E746572203D2039
:10050C00746F207374617274210025647825640003
:10051C002D4E414E000001002D4E414E00494E46DD
:10052C0000000A000400420205009C034C02030078
:10053C00C10352020100C50356020100CA0358024E
:10054C000900600296020D006902DE0210007602BC
:10055C00EB020D008602DE02150093023F030D0034
:10056C00A802DE021200B5028E030D00C702DE02E5
:10057C001200D402E7031400E602F9031400FA0295
:10058C00800411000E0394041C001F03A504140026
:10059C003B03800416004F03E6041A006503FC04B9
:1005AC000100CF0322050000F894EE27ECBBF1E02C
:1005BC00FBBFEBBFE5BF8DE0A2E0BB27ED938A95B7
:1005CC00E9F780E098E0A0E6ED930197E9F7EEE219
:1005DC00F5E085919591009761F0A591B591059005
:1005EC001590BF01F00105900D920197E1F7FB0109
:1005FC00F0CFEFE5EDBFE8E0EEBFC0E6D2E00C9443
:10060C00AC0BAA930E94271AAC81A03091F00E94E7
:10061C00301AEA15FB056CF00E94351AEC15FD0535
:10062C0044F00024A014B00424F00024C014D0041E
:10063C0014F4C6989AC0C69A0E943A1A4CF00E94BA
:10064C00351A0E94421AA0E0B0E080E892E405C09E
:10065C000E94471A34F00E944F1A0E9425200E94D3
:10066C00561A0E94591AD5010E945C1AEA930E94EC
:10067C00651AD6010E945C1AAE2F0E947F0F75C0BE
:10068C00AA932497E1E0E883E2E0E983E4E0EA83DB
:10069C00E8E0EB830E946A1AEA0DFB1DFF2332F09F
:1006AC00DF010E94301AEA17FB071CF4E2E0E815A0
:1006BC0009F50E946A1A4E0E5F1EE3E0F0E0E415A5
:1006CC00F50514F4442455240024401450041CF45F
:1006DC00E3E0F0E02F01E2B3E07F0E2EDE01A40D8B
:1006EC00B51DEC91E029E2BB0E946A1AAE0EBF1E4A
:1006FC000E946F1A3AC0AA932497E0E1E883E0E2E3
:10070C00E983E0E4EA83E0E8EB830E946A1AEC0DEB
:10071C00FD1DFF2332F0DF010E94351AEA17FB079B
:10072C001CF4E2E0E81509F50E946A1A6E0E7F1EB1
:10073C00E3E0F0E0E615F70514F4662477240024D2
:10074C00601470041CF4E3E0F0E03F01E2B3EF70DE
:10075C000E2EDE01A60DB71DEC91E029E2BB0E9426
:10076C006A1ACE0EDF1E0E946F1A25960895BA9350
:10077C00AA93E199FECFEA81EDBBE881F981FFBB39
:10078C00EEBBE29AE19A57C0BA93AA93E199FECFD5
:10079C00E881F981FFBBEEBBE09AEDB3BDC2AA9331
:1007AC001A930A9300E010E00E947C1AE4E8F2E04D
:1007BC00FA93EA93EE810E94811A0E94881A0E9491
:1007CC008F1AE8E79E2EE8E7E91519F0EDE3E91535
:1007DC0009F4F9CFE3E6E91519F4EFEFFFEF29C0BF
:1007EC00F801AAE0B0E00E9403218F01E92DF0E0AE
:1007FC00F0970E0F1F1FE8E79E2E0E947C1AE3E96C
:10080C00F2E0FA93EA93F8010E94951A0E94881A72
:10081C000E949A1AE8E7E915E9F3EDE3E915D1F638
:10082C00E0E0EA93E8E2EA93A0E6B2E00E946B1003
:10083C00F8011981088123960895BA93AA931A9303
:10084C000A9300E010E0E885A985EA1720F4EE8110
:10085C00AF81AE1708F40FC0AD81AA2332F0AC8182
:10086C00BD81AA35E0E0BE070CF003C00C811D81F0
:10087C0002C00A811B81E885A985EA1720F0EE8168
:10088C00AF81EA1708F010C0AC81BD81AA35E0E059
:10089C00BE0724F0A43BE0E0BE070CF003C00C81C3
:1008AC001D8102C00A811B81E885A985AE1720F441
:1008BC00EE81AF81EA1708F410C0AC81BD81A43B76
:1008CC00E0E0BE0724F0AE30E1E0BE070CF003C060
:1008DC000C811D8102C00A811B81E885A985AE1798
:1008EC0020F0EE81AF81AE1708F010C0AC81BD8155
:1008FC00AE30E1E0BE0724F0A836E1E0BE070CF014
:10090C0003C00C811D8102C00A811B81F801198171
:10091C0008812A9608950E94A01AEFE9F2E00E943D
:10092C00B81A143090F40E94D21AEA0FFB1FFF93EE
:10093C00EF93A12F34DFAF91BF910E94D91A0E947F
:10094C00DC1A09F46EC01F5FECCF0E94E41A7CF035
:10095C000E94351A0E94EA1A54F00E94EF1A3CF0D9
:10096C000E94351AAA85BB85EA17FB072CF40E9456
:10097C00F51AA9E6B2E053C00E94FA1AE1E00E940F
:10098C00011B143030F40E94D21A0E94081B1F5F06
:10099C00F8CF0E94F51AA6E7B2E041C00E94A01A57
:1009AC00EBEFF2E00E94B81A143088F40E94D21ACD
:1009BC00EA0FFB1FFF93EF93A12FF1DEAF91BF91D5
:1009CC000E94D91A0E94DC1A61F11F5FEDCF0E94C0
:1009DC00E41A7CF00E94351A0E94EA1A54F00E9424
:1009EC00EF1A3CF00E94351AAA85BB85EA17FB0763
:1009FC002CF40E94F51AA6E8B2E011C00E94FA1A73
:100A0C00E2E00E94011B143030F40E94D21A0E94C2
:100A1C00081B1F5FF8CF0E94F51AA3E9B2E00E94F1
:100A2C006B100E94D221EF962A960895AA93EF9705
:100A3C0023970E94141BE0E0EC83ED830E94CB21F2
:100A4C00FE01EA5BFF4F008130E0FE013A96FA931B
:100A5C00EA93E4E5F3E0FA93EA93FE01E65BFF4FD9
:100A6C00E0810E941A1BDE011C960E946B1010E0A4
:100A7C00133090F40E94D21AEA0FFB1FFF93EF93EE
:100A8C00A12F8DDEAF91BF910E94D91A0E94DC1A62
:100A9C0009F448C01F5FECCF0E94E41A5CF10E947D
:100AAC00351A0E94EA1A34F1E885F985AC81BD81CA
:100ABC00AE0FBF1F0E94301AEA17FB07DCF0A885A7
:100ACC00B985EC81FD81EA1BFB0BFF239AF0E885CD
:100ADC00F985AE81BF81AE0FBF1F0E94351AEA1790
:100AEC00FB0744F0A885B985EE81FF81EA1BFB0B5F
:100AFC00FF232AF40E94F51AA8EAB2E011C00E9462
:100B0C00FA1AE3E00E94011B133030F40E94D21A4F
:100B1C000E94081B1F5FF8CF0E94F51AA5EBB2E0EC
:100B2C000E946B100E94D221EF9628960895AA93EA
:100B3C00EF9761978CE0A8E0B0E0EAE5F2E00E9464
:100B4C00D7210E94CB21FE01EC5AFF4F008130E0EF
:100B5C00FE017896FA93EA93E0EAF3E0FA93EA93CB
:100B6C00FE01E85AFF4FE0810E941A1BDE015A96E3
:100B7C000E946B1010E01630A0F40E94291BEA0FA3
:100B8C00FB1FFF93EF93A12F0ADEAF91BF91ED9363
:100B9C00FC930E94291B0E94DC1A09F475C01F5F8C
:100BAC00EACFAC85BD85E889F9890E94301BEA89BA
:100BBC00FB89EA1BFB0B0F01AE85BF85EA89FB891C
:100BCC000E943A1BE887F9876A877B87AC85BD85CD
:100BDC00EC89FD890E94301BEE89FF89EA1BFB0B17
:100BEC000F01AE85BF85EE89FF890E943A1B0E94DA
:100BFC00461B0E944B1BA885B9858A859B850E9444
:100C0C00C42151F50E94301AAC85BD85EA17FB074B
:100C1C001CF10E94351AAE85BF85EA17FB07E4F07C
:100C2C000E94301AA889B989EA17FB07ACF00E9418
:100C3C00351AAA89BB89EA17FB0774F00E94301A8F
:100C4C00AC89BD89EA17FB073CF00E94351AAE89C6
:100C5C00BF89EA17FB072CF40E94F51AA7ECB2E047
:100C6C0011C00E94FA1AE4E00E94011B163030F405
:100C7C000E94291B0E94081B1F5FF8CF0E94F51AC7
:100C8C00A4EDB2E00E946B100E94D221EF96669602
:100C9C000895AA930E94301AA981B0E0AE17BF073D
:100CAC006CF40E94351AA881B0E0AE17BF0734F47B
:100CBC00A981A03018F0A881A03008F42BC0E981DC
:100CCC00D501F0E0EA17FB0781F0E981F0E0AE17FF
:100CDC00BF0714F4A1E007C0E981D501F0E0EA17E1
:100CEC00FB0714F4AFEFCCDCEACFE8810E94501B79
:100CFC0079F0E881D601F0E0AE17BF0714F4A1E05B
:100D0C0005C0E8810E94501B14F4AFEFF4DCEDCF6A
:100D1C00E1E002C00E94551B22960895AA932897E1
:100D2C00E0E0EC83ED83EE83EF830E94C921EA8936
:100D3C00E03021F4AB89BB2727DD01C0E9891E2FE8
:100D4C00EA89E03021F4EB890E945A1B01C0EF853F
:100D5C000E2FEA89E03021F4EB890E945F1B01C061
:100D6C00E8893E2FEA89E03021F4EB890E94641B6C
:100D7C0001C0EE852E2F51E0311728F0412F098745
:100D8C0038872F8304C0432F298718870F834A93F2
:100D9C00AA857FDF5E2F503009F4C6C0AF81BB2718
:100DAC000E94691B0E94421A0E94701B0E94D71F4E
:100DBC007F936F93FF93EF93A885BB27E42F0E943B
:100DCC00751BAF91BF918F919F910E94421A0E9407
:100DDC0025200E947B1BE0E0EE830E94801B0E947A
:100DEC00851B11F008F005C00E94801B0E948C1B13
:100DFC0008F422C0E885D501F0E0AE17BF07DCF49B
:100E0C00EE81E40FEA93EF81F0E0E7FDFFEFAB85B5
:100E1C00BC858D859E850E94931BDF01CB01EA85E5
:100E2C000E94971BAE2F35DF5E2F503009F47CC02B
:100E3C000E949E1BDFCF76C0EF81A985AE17C8F547
:100E4C00EF81D601F0E0AE17BF0794F50E94A51B09
:100E5C000E9425200E94BC2179F00E94AA1BFF93BE
:100E6C00EF930E94A51B0E94D71FAF91BF910E94C8
:100E7C00AF1B0E94B91B02C0A1E03DDC5030A1F0B9
:100E8C000E94301AAE16BF066CF40E94351ACE16AC
:100E9C00DF0644F40024A014B00424F00024C01491
:100EAC00D0040CF401C001C03DC00E949E1BC8CFF1
:100EBC0039C0EF810E94501BACF50E94A51B0E940B
:100ECC0025200E94BC2179F00E94AA1BFF93EF936E
:100EDC000E94A51B0E94D71FAF91BF910E94AF1B10
:100EEC000E94B91B02C0AFEF06DC5030A1F00E948B
:100EFC00301AAE16BF066CF40E94351ACE16DF06F9
:100F0C0044F40024A014B00424F00024C014D00431
:100F1C000CF401C001C006C0A1E073DBEE81E1500E
:100F2C00EE83C7CFA0E06DDB0E94D02164960895BC
:100F3C00AA9322970E94C921A8850E94C11BE8850B
:100F4C000E945A1B0E2FE8850E945F1B3E2FE885DE
:100F5C000E94641B2E2F311728F0512F402F3F83F6
:100F6C002E8304C0532F422F1F830E830E94C61B57
:100F7C005A93EA85EA934A93A42F0E94CB1BE985E6
:100F8C00EA93EA85EA934A93AB850E94CB1BE985E9
:100F9C00EA935A93EA85EA93AB850E94CB1B5A934A
:100FAC005A93EA85EA93A42FB9DE0E94D0212996A0
:100FBC000895AA930E94C921AE810E94C11BEE81A3
:100FCC000E945A1B0E2FEE810E945F1B3E2F40E0A9
:100FDC0050E021E0E10FEA93A02F5BDE2E2F2030B2
:100FEC0079F14836E1E05E074CF5E32FF0E0FF9332
:100FFC00EF930E94CE1B0E940018AF91BF910E94EC
:10100C00E11BE12F0E94971BEA93E32FF0E0FF9383
:10101C00EF930E94CE1B0E948917AF91BF910E9443
:10102C00E11BE02F0E94971BAE2F33DE2E2F2030BA
:10103C0039F0A1E0E6DA4F5F5F4FD3CFA0E0E1DA01
:10104C000E94D02127960895AA93639783E1A0E08C
:10105C00B0E0E6E6F2E00E94D7210E94C921A98DFA
:10106C000E94C11BE98D0E945A1B0E2FE98D0E9414
:10107C005F1B3E2FE98D0E94641B2E2FE98DF0E043
:10108C003496DF0181DB5E2FE98DF0E03596DF01D0
:10109C007BDB4E2FA32FBB27E12FF0E0AE1BBF0B4A
:1010AC00BD01A32F0E94EA1BDB010E940321CF018B
:1010BC00A22FBB27E02FF0E0AE1BBF0BBD01A22F70
:1010CC000E94ED1BDB010E940321E80FF91F0E9417
:1010DC00421ADF01CB010E948A20ED8BFE8B6F8BB5
:1010EC00788FA22F0E94ED1BFF93EF930E94F01BB1
:1010FC00AF91BF910E94F81BDE011D960E94091C46
:10110C00A42F0E94ED1BFF93EF930E94F01BAF9155
:10111C00BF910E94F81BDE011B960E94091CAE8534
:10112C00AA2332F4ED85FE85E859FE4FED87FE8744
:10113C00AC85AA2332F4EB85FC85E859FE4FEB878E
:10114C00FC87A32F0E94EA1BFF93EF930E94F01BD6
:10115C00AF91BF910E940E1CDE0119960E94091CD2
:10116C00A52F0E94EA1BFF93EF930E94F01BAF91F7
:10117C00BF910E940E1CDE0117960E94091CAA85C5
:10118C00AA2332F4E985FA85E859FE4FE987FA87F4
:10119C00A885AA2332F4EF81F885E859FE4FEF8336
:1011AC00F8873A931A932A930A93E989FA89FA935E
:1011BC00EA93AF85B88941DBE98BFA8B5A931A9382
:1011CC004A930A93EF85F889FA93EA93AD85BE8525
:1011DC0034DBEF87F88BAF85B889109719F40E9430
:1011EC001F1C0CF004C0E8E6F1E0EF87F88B3A9393
:1011FC00A22F0E94261CF1F1E989FA89EB8BFC8B5A
:10120C000E941F1CACF4AB89BC89A836E1E0BE0778
:10121C005CF40E942B1C0E944A1CAE2F0E94261CC0
:10122C0049F10E946A1CEFCF0E94551BEB8BEC8B93
:10123C00EF85F889AB89BC89EA17FB075CF00E9443
:10124C002B1C0E944A1CAE2F0E94261C99F00E9457
:10125C006A1CEECF0E94551BEA93E1E0EA933A93A5
:10126C001A932A93A02F0E94CB1B5A931A934A933A
:10127C00A02F54DD0E94D0216A9608950E94CB21A4
:10128C0010E000E00E94731CA6EEB2E00E946B100E
:10129C0030E03530D0F40E947C1AEDE0F4E0FA93A3
:1012AC00EA93E32F0E94811AE32F0E94811A88E0AF
:1012BC000E9412172C96E0E0EA93AAE03A02F001A1
:1012CC00E65F0E94771C3F5FE4CFE5E3E91518F079
:1012DC00E1E39E1618F4E3E6E91509F401C0F5CF35
:1012EC00E3E6E91511F40C94010D192DE8E79E2E97
:1012FC000E94DF0C0E947C1AE9E1F4E00E947C1C45
:10130C000E94731CA1EAB3E00E946B100E947C1A2D
:10131C00EDE2F4E00E947C1CE0E0EA93EAE00E943B
:10132C00771C0E947C1AE5E3F4E00E947C1CE0E050
:10133C00EA93E4E10E94771C0E947C1AE2E4F4E058
:10134C000E947C1CE0E0EA930E948F1A0E947C1A97
:10135C00ECE4F4E00E947C1CE0E0EA930E949A1A10
:10136C00E4E3E91518F0E1E39E1618F4E3E6E91559
:10137C0009F401C0F5CFE3E6E91511F40C94010D65
:10138C00092DE8E79E2EE02FF0E0F097E130A0E089
:10139C00FA0721F4A12FA053BEDA17C0E230A0E067
:1013AC00FA0721F4A12FA053F9DA0FC0E330A0E023
:1013BC00FA0721F4A12FA05339DB07C0E430A0E0D9
:1013CC00FA0719F4A12FA053B2DB0C94010DEF977F
:1013DC0021970E94141B0E94CB2120E030E0FE01DB
:1013EC003896FA93EA93E6E5F4E00E947C1C0E949E
:1013FC00831CDE011A960E946B1010E01230B0F4C0
:10140C000E94D21AEA0FFB1FFF93EF93A12FC7D9AB
:10141C00AF91BF910E94D91A0E94DC1A29F40E9444
:10142C00F51AAAEFB2E074C01F5FE8CFEC81FD8122
:10143C00E093C103F093C203EE81FF81E093C303F9
:10144C00F093C403E091C103EA93A0E0B1E08FD91B
:10145C00E091C303EA93A1E0B1E089D90E94F51AA7
:10146C00AEE0B3E00E946B100E94301AEA15FB0547
:10147C002CF00E94351AEC15FD0594F40E94F51A17
:10148C00AFE1B3E00E946B100A2C0B2819F0AFEF00
:10149C00F7D8FACF0C2C0D2819F0AFEF2CD9FACFC6
:1014AC00FE013896FA93EA93E1ECF4E00E947C1C7E
:1014BC000E94831CDE011A960E946B10A0E06FD96B
:1014CC009F01EFEFFFEFE217F30741F02130E0E06F
:1014DC003E0724F02030E1E03E072CF00E94F51A84
:1014EC00ABE3B3E015C02093C503E091C503A2E1C3
:1014FC00EA9FF0010E94421A0E94861CE091C503EB
:10150C00EA93A2E0B1E033D90E94F51AAFE4B3E05C
:10151C000E946B100E94D221EF96259608950E948E
:10152C00271A1A930A9310E00E943A1A4CF00E9460
:10153C00351A0E94421AA0E0B0E080E892E405C09F
:10154C000E94471A34F00E944F1A0E9425200E94D4
:10155C00951C0E94731CA5E6B3E00E946B10E3E699
:10156C00E91519F0EDE3E91509F401C0F8CFE3E64C
:10157C00E91521F4198108810C947C0D0E94831CBF
:10158C000E944B1BA091C103B091C2030E945C1A34
:10159C00EA93A091C303B091C4030E949A1C0E94C9
:1015AC005C1AEA93A0E00E949E110E947C1AE6E16C
:1015BC00F5E0FA93EA930E94301A0E94951A0E9461
:1015CC00351A0E94951A88E00E9412172C96E0E5B5
:1015DC00EA93E9E30E94771C10E01530C8F50E94ED
:1015EC009F1CA081B0E0D0D80E2FF0E0E130A0E03D
:1015FC00FA0761F40E949F1CE081EF5FEA930E945E
:10160C00731C0E94731CA0E089DB20C0E230A0E0B8
:10161C00FA0739F40E949F1CE081EF5FAE2F88DC43
:10162C0015C0E330A0E0FA0739F40E949F1CE0815A
:10163C00EF5FAE2FBEDC0AC0E430A0E0FA0731F455
:10164C000E949F1CE081EF5FAE2FFEDC1F5FC5CFB9
:10165C00198108810C947C0DE8E79E2EE82DF0E0B2
:10166C00E130A0E0FA0729F4E2E08E2EA2D1AFDE41
:10167C0011C0E230A0E0FA0729F4E3E08E2E99D1F4
:10168C004EDF08C0E330A0E0FA0721F4E1E08E2E33
:10169C0090D1F4DD08950A928A939A93AA93BA93FF
:1016AC00EA93FA93EFB7EA932A978AE0A0E0B0E0C6
:1016BC00EAE7F2E00E94D7211A930A93E3B3E06FB2
:1016CC000E2F0F3F69F0E0E0E4BBEFE0E4BBE0EF8E
:1016DC00E5BBE3B3EF600E23E3B3EF60EF3FE1F75D
:1016EC00E0EFE4BBEFE0E5BB073E11F4E3E69E2E32
:1016FC00073B11F4EDE39E2EEDE3E91519F0E3E65B
:10170C00E91509F416C010E01A3078F4E12FF0E076
:10171C00DE011296AE0FBF1FEC91E01721F4E12F02
:10172C00E05D9E2E02C01F5FEFCF1A3011F4E8E788
:10173C009E2E198108812C96E991EFBFF991E991C0
:10174C00B991A9919991899109901895269700E0E2
:10175C0010E0E4E5F0E0E883F983EBB7E062EBBF7F
:10176C00E0E0E4BFE0E2EABFBE9AC698EFEFE1BB6F
:10177C00E0E0E2BB7894DE01B8D0E0EFE4BBEFE050
:10178C00E5BBE1E08E2EA0E0B1E00E94A41C21F0AC
:10179C000093C1031093C203A1E0B1E00E94A41C0A
:1017AC0021F0E3ECF3E000831183A2E0B1E00E94AE
:1017BC00A41C11F00093C503E091CA03F091CB0374
:1017CC000E94421AA0E0B0E084EB93E40E94AD1CAE
:1017DC00E091C503F0E00E94931B0E94861C4EDD35
:1017EC00E3E6E91509F438DFFBCFFFCF0000C09A20
:1017FC0000000895C098C498C59808951A93F6DF10
:10180C0019B3C098E12F19910895AA931A93E0E0A7
:10181C00EABBC19AC798E981EF5F1E2F10FF02C087
:10182C00C49A01C0C49811FF02C0C59A01C0C598E2
:10183C00E5DFE078E9F7188183C4AA93A981E5DF95
:10184C000E94B21C7DC4E091CD03EA93E091CC03DD
:10185C00EF73E064AE2FF1DFE091CD03EA93E091FA
:10186C00CE03E86BAE2FE9DF0895AA93E981E093EC
:10187C00CC03E295EF70E695E695E093CD03E88115
:10188C00E093CE03E0DF5CC4A091CC03AF5FA093E8
:10189C00CC03A03818F0E0E0E093CC03E091CC034B
:1018AC00EF7331F4E091CC03EA93A091CE03DDDF2A
:1018BC000895AA93A091CD03A8DFC79A0E94B21CE9
:1018CC0021960895A091CD03A0DFE0E0EABBC19A78
:1018DC00C79A94DF0895AA93E981EA93E9810E945B
:1018EC00BB1CF0DFB0DFEEDF2BC4BA93AA931A93C4
:1018FC00B89AB99ABF9ABB9AC39ABC9ABD9A7ADF26
:10190C00C398A4E6B0E00E94D71EC39A10E0123030
:10191C0040F41A93AFE391DF1A931395A0EC8DDF8B
:10192C00F6CFE1E0E0937F03E0E0E0938003E98110
:10193C00FA813097A9F0A981BA810E946A21E093BB
:10194C008303F093840312960E946A21E093980318
:10195C00F0939903A981BA8114960E946A210AC056
:10196C00E0E0F0E0E0938303F0938403E0939803CA
:10197C00F0939903E0939A03F0939B03E1E0E093D7
:10198C008503E0938603E0938703EFEFE0938803EE
:10199C00E1E0E0938F03E0E9F3E0FA93EA93EFEFF1
:1019AC00EA93A8E0B0E00E94E31803D0E1E01881CC
:1019BC00BAC30E94CB2100E030E0E0918003E0301C
:1019CC0009F00FEF383078F4E0E0EA93A32F3F5F93
:1019DC004CDF10E0A12F1F5FA03820F4A02F0E9435
:1019EC00C11CF8CFEFCFE0E0EA93A0E03EDFE0E0EF
:1019FC00EA93A0E09AD30E94D22124960895AA9348
:101A0C001A930A93AC81A03818F4AB81A03418F067
:101A1C00198108816DC3EC81EA93AC815CDF1E2FC8
:101A2C0012DFEB81E770A1E00E94D1200E2FEA813A
:101A3C00E03011F0102B03C0E02FE0951E23A12FF6
:101A4C0038DF1981088154C3AA93A981A03818F4EE
:101A5C00A881A03410F0E0E073C3E981EA93A98176
:101A6C003ADF1E2EE881E770A1E00E94D120E1212F
:101A7C0011F0E1E001C0E0E063C3AA931A93ED8199
:101A8C00EA93AD8128DF1E2FDEDEE981E73011F00D
:101A9C00E83039F4EB81EA93AA810E942419EB8394
:101AAC0008C0E33021F4EB81E095EB8302C0E03019
:101ABC0021F4EA81E0951E2302C0E23029F4EA8188
:101ACC00AB81EA231E2B0EC0E13029F4EA81AB81F5
:101ADC00EA231E2707C0E43029F4EA81E095AB81A4
:101AEC00EA2B1E23A12F0E94C11C18812696089553
:101AFC00AA9323970E94C921A889A03848F4AF85DE
:101B0C00A03430F4AE85A03019F0AD85A03009F4C6
:101B1C00C8C1EE85E887A889BB27EE85F0E0AE0F3B
:101B2C00BF1FA138E0E0BE0720F0A889E0E8EA1B5F
:101B3C00EE872D85AF85BB27ED85F0E0AE0FBF1F7F
:101B4C00A134E0E0BE0720F0AF85E0E4EA1BED87AE
:101B5C00A985A63009F05BC0EC85E13009F4A1C180
:101B6C00E33039F4E0919A03F0919B03309709F438
:101B7C0098C10885ED85E695E695E6953E2FE22F12
:101B8C00E77019F4AD852A17E9F0A02FBB27E32FD6
:101B9C00F0E00E94FB20AA85BB850E94C51C2695FF
:101BAC0026952695532F5F935F5FE22FAF91EA172F
:101BBC0048F0102FE12F1150E03019F00E94CA1C90
:101BCC00F9CFF1CFAE850A1711F1EE85AA85BB8549
:101BDC00F0E00E94C51CED85E77009F03F5F20E046
:101BEC002F932F5FE32FAF91AE1788F41E851F93B1
:101BFC001F5FE02FAF91AE1718F40E94CA1CF7CFED
:101C0C00EE85AE81BF81F0E00E94C51CE9CFEF8567
:101C1C00E7703E2FED85E03009F443C1EA85FB8582
:101C2C00EE83FF8310E00889303009F065C0AD8584
:101C3C00A83008F45CC0E985E03011F0E33009F419
:101C4C0002C0E73009F402C0E83009F402C0E63003
:101C5C0009F402C0E93009F402C0EA3021F40A9315
:101C6C00E8890E94BB1C1F931F5FEE85AF91AE17D6
:101C7C00B8F5A985A63061F425DEE5DD0E94D71CF8
:101C8C00FA93EA931FDEAE2F0E946B19FDDD27C07D
:101C9C00E985E93011F450E00EC0EA3011F45FEF41
:101CAC000AC00E94D71C0E94E01C5E2FE985E73019
:101CBC0011F0E83021F40E94E61C5E2F06C0E330E0
:101CCC0011F4509502C0E03021F4A52F0E94C11CE4
:101CDC0006C00E94EA1CEFEFEA93AD85CEDEC3CFBF
:101CEC00EF85E85FEF87ED85E850ED87D1C05D8526
:101CFC0020E0E0E0ED877AC0E32FAD85AE0FA93090
:101D0C0020F42D85E0E0ED8703C0E8E0E31B2E2FE7
:101D1C003A93A22F0E9419194E2FE985E630F1F45F
:101D2C001F931F5FEE85AF91AE17B8F40E94F01CA5
:101D3C00AE2FE32F0E94D9200E94F71CE32FA42F73
:101D4C000E94D920E095E1215E2B0E94D71CFA93CA
:101D5C00EA93A52F0E946B19E3CF2CC0E93011F444
:101D6C0050E003C0EA30A9F45FEF0E94E61CAE2FEE
:101D7C00E32F0E94D1205E2F1F931F5FEE85AF9142
:101D8C00AE1730F40E94EA1C4A93A0E076DEF4CF42
:101D9C0011C01F931F5FEE85AF91AE1758F40E94D0
:101DAC00021DAE2FE32F0E94D120EA934A93AD85FA
:101DBC0064DEEFCFED85E03009F473C0AD85A8305B
:101DCC0028F4ED85E21B5E2FE0E003C0532FED8578
:101DDC00E850ED8710E0EF85E85FEF87E8E0E31B64
:101DEC002E2F0889EA85FB85EE83FF83E52FF0E033
:101DFC00E85CFD4F4491E985E630F1F41F931F5FD9
:101E0C00EE85AF91AE17B8F40E94F01CAE2FE22F06
:101E1C000E94D1200E94F71CE22FA42F0E94D120F7
:101E2C00E095E1215E2B0E94D71CFA93EA93A52F33
:101E3C000E946B19E3CF2CC0E93011F450E003C0C1
:101E4C00EA30A9F45FEF0E94E61CAE2FE22F0E944D
:101E5C00D9205E2F1F931F5FEE85AF91AE1730F424
:101E6C000E94EA1C4A93A0E008DEF4CF11C01F9335
:101E7C001F5FEE85AF91AE1758F40E94021DAE2F76
:101E8C00E22F0E94D920EA934A93AD85F6DDEFCF7D
:101E9C00E885AA85BB85F0E0EA0FFB1FEA87FB8784
:101EAC00B9CE0E94D021619608950E940F1D1CF09E
:101EBC00E0E0F0E045C1A881B981A038E0E0BE07C0
:101ECC001CF0EFE7F0E03CC1E881F98139C10E94D8
:101EDC000F1D1CF0E0E0F0E033C1A881B981A03403
:101EEC00E0E0BE071CF0EFE3F0E02AC1E881F981E5
:101EFC0027C1AA93E981EA93E981EA93A0917F0330
:101F0C007EDD1EC1BA93AA9323970E94161D8F01E2
:101F1C00002E012A19F4E0E0F0E05FC00E941D1DC4
:101F2C000F820E941D1D0E820E941D1D0886EB85CE
:101F3C00A885EA1718F4E0E0F0E04FC0F8010F5F55
:101F4C001F4F5491A885BB27EE27A50FBE1FEB850D
:101F5C00F0E0EA17FB0718F0E0E0F0E03EC0EE819D
:101F6C00E695E695E6954E2FEE81E77009F04F5F0A
:101F7C00EF81E030A1F0A985BA85EC93A885EB85BB
:101F8C00EA1BF0E0DF01EF81F0E00E94FB20DF01B3
:101F9C00E42FF0E00E94FB20E00FF11F1EC098011F
:101FAC00E52FF0E00E0F1F1FA885AF5FA887A1508B
:101FBC00EB85AE1760F4F9012F5F3F4FA491B0E0B1
:101FCC00E42FF0E00E94FB200E0F1F1FEDCFF90154
:101FDC00E491A985BA85EC93F8010E94D0212C9646
:101FEC000895E0E0E0938103A0918203BB270E9457
:101FFC00221DF0E0AE0FBF1FE0918603F0E0AE0FA4
:10200C00BF1F65DFE09382030895AA9321970E9476
:10201C00161D309709F453C0AF81AA3009F44DC096
:10202C00EF81EA93DE0117966DDFAF01309709F46B
:10203C0048C0E0918503AE81EA0F3E2FA091810349
:10204C00BB270E94291D0138E0E01E0718F0032F62
:10205C001127C7DFE0918103EA93E0918203EA93B1
:10206C00E885EA930E94221DEA93E1E0EA935A93F1
:10207C004A93A7E03DDDE0918103AE81EA0FEA933C
:10208C00E0918203EA93E0918503EA930E94221D7A
:10209C000E942E1DE0918103EA93A09182030E947D
:1020AC00221DEA0FEA933A93E09186030E942E1DBB
:1020BC00E0E8F0E0E017F10711F493DF02C00093C1
:1020CC0081030E94D02128960895BA93AA931A935B
:1020DC00EC81EA93AC8129D0A981BA81ED91A983D5
:1020EC00BA831E2FE03019F0A12F8FDFF5CF1881A6
:1020FC0025960895AA93EA81EA93EA81EA93E091FE
:10210C008803AA81EA2319F0E0917F0302C0E091D1
:10211C008003AE2F74DCE881EE0FE883E03011F41D
:10212C00E1E0E883E88123960895AA93A981BB276F
:10213C00BCDEE0938103A881BB27C9DEE093820358
:10214C0022960895AA932B970E94C921AC89BB278C
:10215C00ACDEEC8BAA89BB27A8DEEA8BAB89BB274C
:10216C00B6DEEB8BA989BB27B2DEE98BEA89E0935B
:10217C008103E989E0938203E1E0E887E989AB898F
:10218C00EA1771F51C89AA891A1731F41A93EC898C
:10219C00EA93A1E0AFDFC8C0AA891A1730F4EA8924
:1021AC00E11B0E2F41E050E006C0AA89E12FEA1B8B
:1021BC000E2F4FEF5FEF3B89E0E0EE830E94381D5E
:1021CC0038F41A933A933395AA8594DFEF83F6CFBC
:1021DC00EF81E887140FE02F0150E03061F7A4C0C5
:1021EC00EA89AC89EA1739F53B89A9893A1730F4A1
:1021FC00E989E31B2E2FE1E0F0E006C0A989E32F6B
:10220C00EA1B2E2FEFEFFFEFED87FE871C89E0E036
:10221C00EE830E94381D30F41A9313950E94401DD2
:10222C00EF83F7CFEF81E887ED853E0FE22F21504A
:10223C00E03061F779C0E0E0EE830E94381D08F0D1
:10224C0073C01C893B89E1E02E2F0E2FAA89BB2776
:10225C00EC89F0E0AE1BBF0BAD0155232AF40FEF58
:10226C00FA010E94C520AF01FA01EE0FFF1FEF87A4
:10227C00F88BA989BB27EB89F0E0AE1BBF0BAD87B0
:10228C00BE87AE85AA233AF42FEFED85FE850E941A
:10229C00C520ED87FE87ED85FE85EE0FFF1FEB87D2
:1022AC00FC871A933A93A1E025DFE887E0E0E98701
:1022BC00EA87AD85BE854A175B07BCF0100FEB852E
:1022CC00FC850E94441DA985BA854A175B072CF42E
:1022DC00320FAF85B8890E944B1D1A930E94401D86
:1022EC00E887EA89E11751F718C0320FEF85F889B2
:1022FC000E94441DED85FE85A985BA85EA17FB076A
:10230C002CF4100FAB85BC850E944B1D1A930E94B8
:10231C00401DE887E989E31741F7EB89EF5FEB8B09
:10232C00E989EF5FE98B89CF0E94D02165960895EA
:10233C00AA9322970E94C921EA85E03019F0E98519
:10234C00E03009F45EC0E885AC85EA0F1E2FE88505
:10235C00AB85EA0F2E2FE0918703E150EF83EA85DE
:10236C00AC85AE0FA1503A2FA885E32FEA1B0E2F98
:10237C00AF813A1BE985AB85AE0FA1504A2FA885DA
:10238C00E42FEA1B5E2FAF814A1BE0918803EE839A
:10239C00EFEFE09388031A93EC85EA93E02FE1507A
:1023AC00EA93AE85CFDE0A932A93EA85EA93A1E8F5
:1023BC00B8D13A932A933A93A52FA150C3DE0A932E
:1023CC005A93EA85EA93A8E8ACD10A934A931A93F4
:1023DC00A42FB8DE1A935A93EA85EA93A4E8A1D104
:1023EC00EC85EA935A93EE85EA93A22FABDE1A930F
:1023FC002A93EA85EA93A2E894D1EE81E0938803CC
:10240C0004C0EC85EA93AC8574DD0E94D0212D9636
:10241C000895BA93AA9323970E94C921ED85E88762
:10242C00E0918703EF83E0917F03EE83AA89BB27BA
:10243C00EF850E94291DA989BB27E8890E94521D9E
:10244C00E8890E94591D71F0E885E078F1F4AD85BA
:10245C00BE85EAE5F0E00E94611D1CF00E946A1D39
:10246C000CF413C0332312F00E946F1DAF81A23005
:10247C0020F02230E0E03E070CF407C00E94731DF0
:10248C0021F40A93A22FA15034DDE885E878E838CE
:10249C0091F0E885E078C9F4AD85BE85A25FBE4FAA
:1024AC000E947C1D3CF0AD85BE85A25FBE4F0E9494
:1024BC00811D0CF40AC00E94861D38F00E948D1DEF
:1024CC0021F40A93A42FAF5F14DDAA89BB27EF85F3
:1024DC00F0E0AE1BBF0B8D0111230AF445C0E8855B
:1024EC00E278E23891F0E885E07811F5AD85BE85AB
:1024FC00A65ABF4F0E947C1D3CF0AD85BE85A65AE6
:10250C00BF4F0E94811D0CF413C0332312F00E94A4
:10251C006F1DAF81A23020F02230E0E03E070CF4BA
:10252C0007C00E94731D21F40A93A22FA150E1DC75
:10253C00E885E478E43871F0E885E078A9F4AD85B5
:10254C00BE85EEE0F1E00E94611D1CF00E946A1D48
:10255C000CF40AC00E94861D38F00E948D1D21F4D7
:10256C000A93A42FAF5FC5DCAA89BB27E8890E9418
:10257C00291DA989BB27EF850E94521DEF850E945A
:10258C00591D81F0E885E078F1F4EB85FC85AD858B
:10259C00BE85AE17BF072CF0E985FA85EA17FB0755
:1025AC000CF411C033237AF00E946F1DAF81A2305E
:1025BC0050F0E02FEE5F0E94961D29F4E02FEF5FA4
:1025CC00EA93A22F96DCE885E878E83871F0E88584
:1025DC00E078C1F4AD85BE85E8E6F1E00E94611DAE
:1025EC001CF00E946A1D0CF40DC00E94861D50F058
:1025FC00E02FEE5F0E949E1D29F4E02FEF5FEA931F
:10260C00A42F77DCAA89BB27E889F0E0AE1BBF0BAF
:10261C008D0111230AF450C0E885E278E23871F09C
:10262C00E885E07809F5AD85BE85E4EBF0E00E9425
:10263C00611D1CF00E946A1D0CF416C03323A2F01D
:10264C000E946F1DAF81A23020F00230E0E01E0727
:10265C000CF40AC0E02FE2500E94961D29F4E02FE2
:10266C00E150EA93A22F45DCE885E478E43891F058
:10267C00E885E07809F5AD85BE85AC54BF4F0E9466
:10268C007C1D3CF0AD85BE85AC54BF4F0E94811DB6
:10269C000CF412C00E94861D20F00230E0E01E07F0
:1026AC000CF40AC0E02FE2500E949E1D29F4E02F8A
:1026BC00E150EA93A42F1DDC0E94D021639608956B
:1026CC00AA930E94CB21AF81BB27ED81F0E0AE1B1A
:1026DC00BF0BEBDB1E2FAF81BB27ED81F0E0AE0F04
:1026EC00BF1FE3DB0E2FAE81BB27EC81F0E0AE1BEE
:1026FC00BF0BEDDB3E2FAE81BB27EC81F0E0AE0FC4
:10270C00BF1FE5DB2E2F1A933A930A93A32F1ADDE2
:10271C001A932A930A93A22F15DD0E94D2210C94AE
:10272C003618AA930E94C921A985A03818F4A88547
:10273C00A03408F04FC050918703E52F5150E03082
:10274C0009F448C0EF81E03009F444C0EF81E15056
:10275C00EF83EF5F0E2FF0E0A5E0B0E0AE1BBF0BF8
:10276C00FD010E94E1200E94E6209F0110E0AE8155
:10277C00A03459F40E94A61D1A93A02FA1DF0E9429
:10278C00A61D0A93A12F9CDF0FC00E94A61D1A93B1
:10279C000A93EA85F0E0FA93EA93E0E0F0E0FA932A
:1027AC00EA93A0E0B0E035DE1F5F33231AF4E12F8B
:1027BC00F0E008C00150A12FBB27E02FF0E0AE1BCA
:1027CC00BF0BFD01EE0FFF1F31962E0F3F1F0117A0
:1027DC0070F6B3CF0E94D0212A960895BA93AA938B
:1027EC001A930A93AA81BB8112960E946A21309790
:1027FC0029F1AA81BB8114960E946A218F0130971E
:10280C0061F00230E0E01E0780F0F80131978F0193
:10281C00AA81BB811496ED93FC93AA81BB8112967D
:10282C000E94AB1D3197AC81A083AA81BB810E9411
:10283C006A21FF2312F00E94AB1D06C0AA81BB8146
:10284C00EFEFFFEFED93FC93198108810C94F118D5
:10285C00BA93AA930E94271A0E94CB21EE85FF857A
:10286C00EF3FAFEFFA0749F4E885F985FA93EA935D
:10287C00ACE1B5E00E94F318B1C0EF3FAFE7FA0747
:10288C0049F4E885F985FA93EA93ADE1B5E00E9445
:10289C00F318A4C0AB85A73010F0E6E0EB871B85DE
:1028AC00E12F1150E03019F00E94B11DF9CFEC85E9
:1028BC00FD856E857F850E94BC2121F430E00E944D
:1028CC00B11D2DC03B850E94BC1D09F008F40BC046
:1028DC000E94B11D0E94BC1D28F00E94C41D0E94C4
:1028EC00C91DF8CF0DC00E94BC1D40F40E94C41D30
:1028FC000E94D51D0E94DC1D3150F5CF0E94B11DE8
:10290C00EC85FD856E857F850E94E11D0E94DC1D96
:10291C000E94BC1D20F00E94C41D0E94C91D10E025
:10292C00EB85E11778F10E94E81D0E94ED1D0E94D5
:10293C00E11DDF01CB010E9477170E94461B0E940C
:10294C004B1B0E94C41D0E9425200E94141F0E2F99
:10295C000E94F41D0E94FB1DFF27662777270E940B
:10296C004D1F0E94001E0E94C41D0E94041E0E9446
:10297C00DC1DE12F1F5FE03099F60E94F41DEEE2A2
:10298C00EC93CECF0E94091E3197AA85A0833030DC
:10299C002CF43195A885B985EDE203C0A885B985DD
:1029AC00EBE2EC930E94091E0E94091E3197BF01B5
:1029BC00A32FEAE00E941621E05DDB01EC930E945C
:1029CC00091E3197BF01A32FEAE00E944021E05D70
:1029DC00DB01EC93A885B985E0E0EC930E94D22151
:1029EC0060960895BA93AA93EF9761970E94C921B4
:1029FC0010E0FE01E85AFF4F0190F081E02DE887CE
:102A0C00F987FE01EA5AFF4F0190F081E02DEE8329
:102A1C00FF83AE81BF81E0E0F0E0ED93FC93DE013B
:102A2C00A45ABF4F0E94AB1D3197E4912E2FE0307A
:102A3C0009F4E9C1E12FE03039F4253211F411E049
:102A4C0002C00E940F1EDEC1E130C1F4253219F420
:102A5C000E940F1ED6C112E0E0E0ED8B00E02D329B
:102A6C0011F401E0CFC12B3219F4EBE2ED8BCAC1AA
:102A7C00203219F4E0E2ED8BC5C102C0E23039F42A
:102A8C0050E013E0203311F40068BCC102C0E33005
:102A9C0091F4203310F02A3308F007C0AAE05A9FB3
:102AAC00502DE22FE0535E0FADC140E02E3211F4F9
:102ABC0014E0A8C10FC0E43099F4203310F02A338D
:102ACC0008F008C00062AAE04A9F402DE22FE053B4
:102ADC004E0F98C12C3619F4026015E093C103C057
:102AEC00E53009F08FC1E22FE33659F40E94161E2F
:102AFC000E941D1E0E94161EA481AA930E94241ED1
:102B0C0080C1E53411F0E53609F403C0E63609F06E
:102B1C0048C0FE017696EE87FF870E942A1E0E940F
:102B2C006E210E947B1B0E94311EAD85AA2332F0C0
:102B3C00AD89AB3259F0A03281F017C00E94331E20
:102B4C000E94E11E0E947B1BEDE2ED8B07FF05C08E
:102B5C00ED89EA930E94241E08C0EE85FF8531960C
:102B6C00EE87FF873197AD89A08305FF46E02636B7
:102B7C0051F40E94331E0E9483214A93AB89BC8975
:102B8C000E948A1909C00E94331E0E9483214A9315
:102B9C002A93AC89BD895CDEFE0176960E94381EB4
:102BAC001EC0E33739F40E94311E0E94401E0E9461
:102BBC00381E0EC0E037C1F40E94311E0E94401E28
:102BCC00EE87FF87AE85BF850E940C191E2F08600B
:102BDC000F77403011F0411708F001C0142F40E07E
:102BEC00E0E0EC8B30E06DC0E43611F0E93611F426
:102BFC00046002C0E537A1F4EAE0EC8B01FF08C0E9
:102C0C00E0E0FAEC6AE97BE30E94451E1AE022C080
:102C1C00E0E1F7E260E070E00E94451E15E01AC0AA
:102C2C00E83511F4086003C0E83709F0EAC0E0E1C8
:102C3C00EC8B01FF08C0E0E0F0E060E070E10E9486
:102C4C00451E18E007C0E0E0F0E160E070E00E9493
:102C5C00451E14E0403011F00F7701C041E001FF38
:102C6C0008C00E94311E0E942A1E14960E946E21DA
:102C7C000FC002FF07C00E94311E0E94401E0E941E
:102C8C00F12006C00E94311E0E94401E6627772745
:102C9C00EA87FB876C877D8702FF12C0AD85AA236C
:102CAC0042F40E94331E0E94C9200E947B1BEDE25D
:102CBC00ED8BED89E03019F01F5F4F5F01C00B7F8A
:102CCC00342F00FD14C0151710F4351708F00FC081
:102CDC0007FF08C002FF04C00B7F2D89115001C0F3
:102CEC0020E301C020E20E940F1E5150ECCF1417BC
:102CFC0090F4006102FF06C00E944A1E09F0515078
:102D0C0011504150E0E3EA930E94241E503009F028
:102D1C0051504150ECCF312FEC89E030B9F43030C8
:102D2C00A1F003FF06C0EE85FF852591EE87FF8796
:102D3C0005C0AE85BF852D91AE87BF870E940F1E43
:102D4C00503009F051503150EACF51C00E945C1EF6
:102D5C000E941B212E2F2A3030F003FF02C0295C69
:102D6C0001C0295A01C0205D04FD21C0213360F44B
:102D7C00A889B9898A899B89A130E0E0BE07E0E087
:102D8C008E07E0E09E0709F40BC0431740F453177D
:102D9C0010F000FF01C010C020E207FF08C020E3C4
:102DAC00006102FF04C00E944A1E09F051500E94AB
:102DBC000F1E503009F0515031500E945C1E0E9481
:102DCC004C210E947B1BEC89A889B9898A899B8933
:102DDC00FF27662777270E941B210E94451EE88942
:102DEC00F9896A897B890E94BC2109F0AFCF00FF69
:102DFC0008C0503031F05150E0E2EA930E94241E9A
:102E0C00F8CF10E00CCEAE81BF810E946A210E94E7
:102E1C00D021EF966F960895FF92F82E26970E9478
:102E2C00CB210E94611E309719F4EFEFFFEF23C006
:102E3C00DE0116960E94C1208D010E94611EEE8358
:102E4C00FF83E0E0E887E987DE011A960E94C12043
:102E5C000E946A21FA93EA931A930A93E4EFF3E13E
:102E6C00FA93EA93DE011A96BDDD9F01AE81BF8114
:102E7C00E0E0EC93F9010E94D2212A96FF9008958C
:102E8C000E9488217B816A81F981E88177FB770F29
:102E9C0067FD7160972F9E5781F078F0983190F410
:102EAC00AA27BB27882708948795B795A7959A9545
:102EBC00D1F7EA23FB23682305C0E8947727EE2794
:102ECC00FF2766276F77769508F4606877F9A991E4
:102EDC00B99189919991EA17FB076807790797FBD4
:102EEC0008950E94681E0E9446170E94561A21F4EB
:102EFC000E94591A0C948819DEF70E946D1E0E94CC
:102F0C00801F0C9488190E946F1EE3E8F9EF62E2AF
:102F1C007EE30E94D71F0E94791EE3DF0E94821E6F
:102F2C000E94041E0E94791EE0E0F0E060E07FE366
:102F3C000E946A2009F008F409C00E949A1CA0E0C3
:102F4C00B0E080E09FE30E94871E11E00E94821E89
:102F5C00E0E0F0E060E87EE30E946A2009F008F40B
:102F6C0008C00E94821EE0E0F0E060E07FE30E9477
:102F7C00871E103011F00E948E1E0E94961EE9834F
:102F8C00FA836B837C830E94651AA1EBB4EC86E216
:102F9C0092E40E94D71FDF01CB01EDE1F5EE6DE26B
:102FAC0072E40E94041E0E949B1EACE4B3E584E014
:102FBC0091E40E94871F0E94821E0E94D71F7F935C
:102FCC006F93FF93EF930E94651AA1E1BDEE8EED16
:102FDC009FE30E94871F0E949B1EAEE5BBE788EA19
:102FEC009FE30E94871FAF91BF918F919F910E9489
:102FFC002520C6C00E94681EEBEDFFE069EC7FE364
:10300C000E94801FDF01CB017EDF0C9488190E9487
:10301C00882124970E944B1B0E94001E0E94561A66
:10302C000E94591AA5E6B0ED8BEC90E40E94A21E0A
:10303C000E94001E7F936F93FF93EF930E94591A87
:10304C00A0E0BDE689E291E40E94871F0E94AB1EBE
:10305C000E94A21EAF91BF918F919F910E9425203B
:10306C00289608950E94681EEDECF3E164ED7EE372
:10307C000E946A2028F40E94AB1EC9DF0C948819A8
:10308C000E94AB1EEAE7F2E86AE170E40E946A2053
:10309C0009F008F409C00E946D1E0E94AD1CB7DF38
:1030AC000E94AE1E0C9488190E946D1E0E94801FF7
:1030BC007F936F93FF93EF930E946D1E0E94871F67
:1030CC00AF91BF918F919F910E94AD1CA0DFABED92
:1030DC00BFE089E49FE30E94871F0C9488190E942B
:1030EC006F1E0E948C1B40F00E94821E0E94851B4A
:1030FC0011F008F001C005C0EFEFFFEF6FE77FE7BD
:10310C003FC0A885AA231AF40E948E1E11E00E94CB
:10311C00961E0E94701B0E94041EDF01CB010E94B0
:10312C008A20E983FA836B837C830E94821EE3EFFF
:10313C00F4E065E37FE30E946A2009F008F40CC018
:10314C000E949A1CA981BA818B819C810E94AD1C22
:10315C0089DF0E94AE1E07C00E94651A0E94821E63
:10316C000E94AD1C7FDFE983FA836B837C83103074
:10317C0029F00E94651A0E94E11E02C00E94651A85
:10318C001881299608950E94681E0E948C1B40F09D
:10319C000E94AB1E0E94851B11F008F001C006C0F6
:1031AC00EFEFFFEF6FE77FE70C9488190E94AB1EDF
:1031BC0096DF0E94AE1E0C948819BA93AA93B9811B
:1031CC00A881109631F0FC81EB816A816193119793
:1031DC00E9F7EB81FC8125960895BA93AA93E991BE
:1031EC00F991A991B991CD0105900D920020E1F7CB
:1031FC00FC010895BA93AA93A991B991EE27FF27E0
:10320C006D91662311F03196FBCF0895BA93AA9372
:10321C00AA27BB27E991F9910590002011F011968E
:10322C00FBCFFD010895AA93E881F0E0E85CFD4F27
:10323C00A491E9810E94D12022960895AA931A9311
:10324C00E981E73011F0EA3019F410917F0309C0DD
:10325C00E93019F41091800304C0E830A1F4109106
:10326C008F03E0918003E03049F0103019F0EFEF5C
:10327C00188129C0EA81E095188125C0103019F415
:10328C00E0E0188120C0EA8118811DC0BA93AA938E
:10329C00EA81E13021F4E881F981E49114C0E23053
:1032AC0029F4A881B9810E949F210DC0E33041F41B
:1032BC00A881B981E0919803F0919903099503C015
:1032CC00A881B981EC9123960895AA93EB81E03003
:1032DC0029F4E881A981BA81EC9314C0E23031F46D
:1032EC00E881A981BA810E94AB210CC0E33051F472
:1032FC00E981FA81FA93EA93AA81E0919A03F09119
:10330C009B03099524960895BA93AA932497E0E019
:10331C00E883E983EA83EFE3EB831A930A93EB8563
:10332C00FC85EF3FAFEFFA0731F417D5A4E2B5E017
:10333C000E94F31882C0EF3FAFE7FA0731F40DD5C6
:10334C00A5E2B5E00E94F31878C0AC85AA2352F42C
:10335C00E985FA856B857C850E94E11E03D507D52E
:10336C00EDE2EC93A885A73010F0E6E0E88718852D
:10337C00E12F1150E03021F001D529D4D0D2F8CF73
:10338C0002D50E94871FEED410E0E0E0F0E060E888
:10339C007FE3C5D2F8D40E946A2068F0EFD4FFD343
:1033AC00BED21F5F173230F0D8D4A9E2B5E00E942C
:1033BC00F31843C0EFCF103021F4D9D4E0E3EC93F1
:1033CC001BC0E12F1150E030B9F0D8D400D4F3D3A6
:1033DC00DF01CB010E947717A2D2D5D40E94252001
:1033EC000E94141F0E2FC3D400D4F0E0C7D495D183
:1033FC00D3D404D4B7D4E5CFE885E030D1F0B7D43A
:10340C00EEE2EC93E885E150E887EF5F91F0C4D4ED
:10341C00C6D3A8D4E985FA856B857C850E94141FD8
:10342C000E2FA5D4E2D3F0E0B7D426D0E7D39AD4AC
:10343C00E9CFAE81BF81E0E0EC93198108812D9634
:10344C0008952497E0E0E883E983E0E8EA83EFE37A
:10345C00EB830895E091C103F091C2030895E091CC
:10346C00C303F091C4030895A091C303B091C403A6
:10347C00A134E0E0BE0708950E94F1200E944D1F88
:10348C000895A091C103B091C203A138E0E0BE073A
:10349C000895E0DFF1DFA0E0B0E080E093E4089570
:1034AC000E947E2108950E94742108950E94F620A6
:1034BC000E948F210E94D71F0E94141F0895E9813A
:1034CC00FA816B817C810895EC81F0E0E7FDFFEFE0
:1034DC000895E091C603F091C7036091C803709101
:1034EC00C9030E94141FDF010C94D71EE1EAF3E01C
:1034FC00FA93EA930895F0E031960E94F1200E942D
:10350C008321089584E00E9412172896E0E0EA9344
:10351C000895EEE1EA93A1EAB3E00C946B100E94DB
:10352C00F1200E9483210895E8E2EA93A1EAB3E036
:10353C000C946B10AA93EF972597E0E0E883E9834E
:10354C00EA83EB83EC83ED83EE83EF830E94CB2144
:10355C00FE01E85BFF4F008130E0FE013C96FA93E0
:10356C00EA930895FA93EA93FE01E45BFF4FE0813E
:10357C00FF27662777270E94832184E00E94121779
:10358C0028960E94DF0CE0E0EA93EA93DE011E9697
:10359C000E946B1010E00895E12FF0E0DE0114960C
:1035AC00EE0FFF1F0895ED93FC93F6CFAE0FBF1FE8
:1035BC000E946A21EF3FAFEFFA0708954BDFAC8111
:1035CC00BD81EA17FB070895AE81BF81EA17FB079F
:1035DC00089540DFA885B985EA17FB070895E0E058
:1035EC00EA93EEE1EA930895E02FF0E03197E45688
:1035FC00FC4F30810895EA93A32FBB270E94BD0393
:10360C0010E00895AE0FBF1FEC91EA93A32FBB27D8
:10361C00EE27A10FBE1F11960C94BD03E0E0E883CA
:10362C00E983EA83EB830895FF27662777270E94B7
:10363C00832184E00E94121728960E94DF0CE0E0A0
:10364C00EA93EA930895E12FF0E0DE011C96EE0F69
:10365C00FF1F0895EA1BFB0B0F01D0010E940321F1
:10366C00BF01AE85BF850895EA1BFB0BD0010E94FC
:10367C000321E60FF71F00DFDF01CB010C948A203A
:10368C00EC83FD836E837F830895EC81FD816E81D5
:10369C007F810895D601F0E0EA17FB070895A0E0BA
:1036AC000E940703E0E00895F0E03196DF010C94EE
:1036BC00CA03F0E03296DF010C94CA03F0E03396B3
:1036CC00DF010C94CA03E985F0E00E949821EA1B03
:1036DC00FB0B0895A0E0B0E080E89FE30895F0E0D4
:1036EC000E949821EA1BFB0B0895EA87FB876C87E5
:1036FC007D870895AA85BB858C859D850895E0E01E
:10370C00F0E060E87FE30E946A200895E0E0F0E0DA
:10371C0060E87FEB0E946A200895AEDE0E94D71FFE
:10372C000895F0E0A9DE0E94871F0E94141F0895DF
:10373C00A1E00E940703EE81EF5FEE830895EA8516
:10374C00FB856C857D85C6CFAE81B0E0A7FDBFEF54
:10375C00BACF0E94F6200E948F210E942520DF0103
:10376C00CB01E42FDECFEA93EA85AF81AE0F0E9446
:10377C004F065E2F0895BB270E94CA031E2F089583
:10378C00E0E0EA93E1E0EA9308950E949406F8CF12
:10379C00FA0172DEA3ECB5EF88E490E40E94D71F27
:1037AC00DF01CB01E0E0F0E064E373E40E9425204C
:1037BC00DF01CB0108950E94F6200E948F210E9408
:1037CC00D71FDF01CB010895BB27E12F88CFBB2783
:1037DC00E02F85CFED89FE896F89788D7BDF0E9484
:1037EC00D71F08950E94F6200E948F210E94252049
:1037FC00DF01CB010E947518A3EABCE485E692E4D4
:10380C000E94D71F08950E94161FED93FC930895F4
:10381C000E94F6200E948F210E942520DF01CB01FF
:10382C000E94C918A3EABCE485E692E40E94D71F63
:10383C000895EF85F889A989BA89EA17FB070895D5
:10384C000E944F06EE83E0300895EB89FC8914DE6C
:10385C00A3ECB5EF88E490E40E94D71FDF01CB0105
:10386C00E0E0F0E064E373E40E942520DF01CB018B
:10387C000E940018AD89BE898F89988D0E94D71F30
:10388C00DF01CB01E12F4DCFEA93EC89FD89F4DD0B
:10389C00A3ECB5EF88E490E40E94D71FDF01CB01C5
:1038AC00E0E0F0E064E373E40E942520DF01CB014B
:1038BC000E948917AE89BF89888D998D0E94D71F68
:1038CC00DF01CB01E02F2DCFA1E00E940703EB8994
:1038DC00FC893196EB8BFC8B0895E0E0EA93EA933C
:1038EC000895EA93A1EAB3E00C946B10FA93EA936F
:1038FC0080E00E941217249608950E94DF0CEDCFF1
:10390C00A0E0B0E68AE697E40E942520E093C60387
:10391C00F093C7036093C8037093C9030895EA83B7
:10392C00FB836C837D830895ED81FE816F817885A7
:10393C000895E12FF0E0E456FC4F08950E94CA036D
:10394C000E2F1127EFEFF0E0E017F10708950E941A
:10395C002520DF01CB010895C198EFEFEABBE88188
:10396C00EBBB0E94FC0B0C94000CE695E695E695DF
:10397C00AE2F0C943B0C0E945F0C0C944A0CEA0F7B
:10398C00FB1FEE83FF830895EC85EA93EF81F885A6
:10399C003196EF83F8873197FA93EA93A0E00C9471
:1039AC006B19EC85EA93EF81F8853196EF83F887F4
:1039BC003197089566277727DF01CB010C944C19BA
:1039CC005A93AA850C9424190A930395E889EA93CF
:1039DC005A9308950A930395A8890E94710CE423C5
:1039EC0008955E2FEC85EA93AF81B88588279927D7
:1039FC000E944C191E2E08950A930395E889EA93A8
:103A0C00EE85EA93E985FA853196E987FA8731974D
:103A1C00D1CFBA93AA93A881B9810E94C0210895ED
:103A2C000E94C921E0918303F09184030895F80169
:103A3C000F5F1F4F04900895E0918303F09184036E
:103A4C003196E4910895F0E0EA0FFB1F8F01089581
:103A5C00EA93E0E0EA93E0E0F0E0FA93EA93A9E07D
:103A6C000C947E0DAE81AF5FAE83A150E0918703C5
:103A7C00AE1708953A93AA850C948010A985BA853F
:103A8C00EA0FFB1FE987FA870895E985FA85EA1B97
:103A9C00FB0BE987FA870895F0E0AE1BBF0B9D0185
:103AAC00A989BB270895F0E0EA0FFB1FAF01E88559
:103ABC00E178E1380895EA1BFB0B0F01DF01EB8580
:103ACC00FC85AE17BF070895E985FA85E015F10569
:103ADC0008950A93A22F0C947F0F0A93A22FA25041
:103AEC000E942A0DAE2FEE81EA170895EB85FC8516
:103AFC00AE17BF070895E985FA85EA17FB07089505
:103B0C000A93A42F0E947F0FAF81A23008950A93CD
:103B1C00A42FAE5F0E942A0DAE2FEE81EA170895F6
:103B2C00EA93A22F0E942A0DAE2FEE81EA17089578
:103B3C00EA93A42F0E942A0DAE2FEE81EA17089566
:103B4C00E985EA93E985EA930895ED91FD91319623
:103B5C00FE93EE930895AC81BD818E819F81E0E050
:103B6C00F0E060E271E40E94D71F8ACD8EDDAC8557
:103B7C00BD858E859F850E946A200895AC85BD8584
:103B8C008E859F850895EDECFCEC6CEC7DE30E943A
:103B9C00D71FEC87FD876E877F873F5F0895E0E036
:103BAC00F0E060E271E40E94D71F0895EC87FD8776
:103BBC006E877F870895A0E0B0E080E09FE30E94CD
:103BCC00871F0895AC81BD818E819F810895EDEC96
:103BDC00FCEC6CEC7DE30E94D71F0895A885B98599
:103BEC001196A887B98711970895E02FE05DEC93A3
:103BFC00E02F0895E7DF0E94D71F08950E949221BD
:103C0C000E94801F0895E885F9853196E887F98729
:103C1C0008952A93AF81B885E985FA8509950895A9
:103C2C00FE01E65AFF4F0190F081E02D0895349784
:103C3C00DE01A65ABF4FED93FC930895AF81B88572
:103C4C00E985FA8509950895DE01A65ABF4F0D90B6
:103C5C00BC91A02D0895E4DFEACFEA85FB856C8545
:103C6C007D850895EE87FF87AE85BF850E9400197C
:103C7C001E2F0895E9DF14960E946A210895E88B9F
:103C8C00F98B6A8B7B8B08950B7FED89EA93DE01B0
:103C9C00A95ABF4F0D90BC91A02DFE01E75AFF4FC2
:103CAC000190F081E02D099550300895E889F9894B
:103CBC006A897B891FCDDE011C960E94C1200E945F
:103CCC006A2108950E9488210E9479210895EBDBD6
:103CDC0001CD0E94882124971A9310E0AD81BE81FA
:103CEC008F8198850895ED83FE836F837887AD81EE
:103CFC00BE818F8198850895AD81BE818F81988515
:103D0C0008950E94801FED83FE836F83788708954A
:103D1C000BDE0E94E11EED83FE836F83788708958E
:103D2C0003DEEADF0E94D71F0895A981BA818B8137
:103D3C009C810E94D71F08950E94D71FAEE4BFE854
:103D4C008AE491E40E94871F08950E9479210895C6
:103D5C00ABEDBFE089EC9FE351CFEE81FF81FA938D
:103D6C00EA930895E987FA876B877C870895AE817B
:103D7C00BF811196AE83BF8311970895AA81BB8131
:103D8C008C819D810895EA81FB816C817D81A9855F
:103D9C00BA858B859C850895A985BA858B859C856C
:103DAC000895109639F0A89580ED97E00197F1F7FA
:103DBC001197C9F7089530976040704009F070581A
:103DCC000895552342F4503811F4E0FF04C03196A5
:103DDC00691F791F6BF050E8572711F45F93CFC020
:103DEC005F3F31F0660F000C57956795752F08955E
:103DFC005F9300200AF0CFC0C8C050E8192E1522DE
:103E0C00880F991F9527550F879550E8072E052287
:103E1C00660F771F7527550F67950895689401C035
:103E2C00E8945F93F2DF703818F07F3F08F4A7C076
:103E3C0056E1571BAAF4519558300EF4593030F016
:103E4C00EFEFFFEF6FEF7FE777F91AC07727552376
:103E5C00B9F0EE0FFF1F661F771F5A95D1F710C0F0
:103E6C007727583028F0EF2FF62F672F5850F9CFBF
:103E7C00552331F076956795F795E7955A95D1F7D7
:103E8C0000200AF480D15F910895689401C0E894F1
:103E9C00309760407040B1F0002426F0772312F484
:103EAC00009471D1172E7EE1112032F07A95EE0F2D
:103EBC00FF1F661F111CF9CFEF2FF62F612D5F939B
:103ECC008ADF5F9108954F93AF01FD01DA01AB01D9
:103EDC00BC01CA01402D012C142E4F910895EA0FFC
:103EEC00FB1F681F0895E095F0956095EF5FFF4FFD
:103EFC006F4F08955F9381DF903871F150E815266C
:103F0C0004C05F937ADF903839F1703821F1572F64
:103F1C00591B2BF112F4D7DFFACF583118F0AA271E
:103F2C00BB278827583028F0AB2FB82F882758503C
:103F3C00F9CF552329F08695B795A7955A95D9F7BA
:103F4C00502D512572F0CBDF38F46795F795E79536
:103F5C00739513F420C0B7DF3EDF5F910895D8F757
:103F6C00FBCFEA1BFB0B680B51F010F40094BBDF8A
:103F7C00662392F3EE0FFF1F661F7A95CBF7EE27A1
:103F8C00FF27662777275F910895EFEFFFEF6FE725
:103F9C007FEF5F910895EFEFFFEF6FE77FE75F91A2
:103FAC0008955F932ADF703851F3903841F3012460
:103FBC000894791F23F41CF300203AF3ECCF0F92F2
:103FCC001F932F933F934F93112722279927689F75
:103FDC00A0018F9F302D410D591F6B9F300D411D3E
:103FEC00591F8E9F27D0BF9F25D06A9F23D0BE9F7D
:103FFC001DD0AF9F1BD0AE9F110D291F391F491F1C
:10400C00591FE32FF42F652F522F4F913F912F9172
:10401C001F910F9066232AF0550FEE1FFF1F661F8E
:10402C0002C073954BF2CDDE5F910895100D211DEA
:10403C00391F02C0200D311D491F591F08955F9370
:10404C00DCDE703821F411200AF49FCFA4CF903815
:10405C0009F495CF01240894970B1BF4D4F300209A
:10406C00F3CF792F1F932F933F934F931124112745
:10407C00222733274427552790E2AE17BF07860720
:10408C00410730F0AE1BBF0B860B410B089401C0EF
:10409C008894551F221F331F111CAA1FBB1F881F7A
:1040AC00441F9A9551F7F901612D4F913F912F9132
:1040BC001F91662332F0550FEE1FFF1F661F7A9576
:1040CC0043F27FDE5F91089599239AF0772342F0B3
:1040DC00971748F029F4AE17BF07860720F031F088
:1040EC0098948894089598940894089518948894B2
:1040FC0008957723C2F7971798F3A9F7EA17FB07E8
:10410C00680788F399F3ECCFFDD024975F939F81D8
:10411C00992311F4289633CF12F428963CCF4F9361
:10412C0042E48E81BD81AC8188839983AA83BB8351
:10413C00FD01BC01AC81BD818E819F8180DF8881B6
:10414C009981AA81BB81DDDE60DE7A9544DE8881AF
:10415C009981AA81BB81AE27A87F21F4BF1786075E
:10416C00970729F04A9519F0DF01CB01DDCF4F916C
:10417C005F91289608950024AF0DB01D0895F19518
:10418C00E195F0400895F09560957095E195FF4F9D
:10419C006F4F7F4F0895EE230E2EEA2F19F0EE0F7E
:1041AC000A94E9F70895EE230E2EEA2F19F0E695FE
:1041BC000A94E9F70895EE0FFF1FEE0FFF1F089505
:1041CC00F595E795F595E7950895FE2FFF0FFF0BF5
:1041DC006F2F7F2F08956F2F660F660B762F089524
:1041EC008B2F880F880B982F0895FA9FF02DEB9F3B
:1041FC00F00DEA9FE02DF10D089558D0F6DF0EF486
:10420C00BEDF0895002498E0AA0F001C0E1A10F4CB
:10421C000E0E01C0A1609A95B9F7EA2FA02D089552
:10422C0039D0F0DF0EF4E19508953F934F935F93EF
:10423C00002411244427552730E2AA0FBB1F881FE6
:10424C00991F001C111C441F551F0E1A1F0A460BE8
:10425C00570B28F40E0E1F1E461F571F01C0A160DE
:10426C003A9559F7FD01BC01D001CA015F914F91FC
:10427C003F910895E894A7FF02C0A1956894E7FDCB
:10428C00E195C0DFEA2F0EF4E1950895CEDFFD0134
:10429C00BC010895E894E7FF02C0E1956894A7FF7C
:1042AC0004C0A19500F8039400FA0895E894F7FF70
:1042BC0002C065DF6894B7FF06C0A095B095119653
:1042CC0000F8039400FA0895ED91FC91119708956C
:1042DC00ED91FD916D917C9113970895E881F98191
:1042EC006A817B810895A881B9818A819B81089517
:1042FC00E883F9836A837B8308957A936A93FA93AC
:10430C00EA9308959A938A93BA93AA93089568941A
:10431C0001C0E89401D0BCDD182E862F612D192E1A
:10432C00972F712D1B2EBF2FF12D1A2EAE2FE12D95
:10433C000895E199FECFFF93FFB7F894AEBBBFBBD6
:10434C00E09AEDB3FFBFFF910895E19B02C0A895E1
:10435C00FCCF9FB7F894AEBBBFBBE09A8DB3E81708
:10436C0019F0EDBBE29AE19A9FBF08953097604037
:10437C007040089500240A160B060895EA17FB07EF
:10438C006807790708955A934A933A932A931A9394
:10439C000A9308955D814C813B812A8119810881A2
:1043AC000895AC0FBD1F05900D928A95E1F7089505
:00000001FF
